{"abi":[{"type":"receive","stateMutability":"payable"},{"type":"function","name":"allowance","inputs":[{"name":"","type":"address","internalType":"address"},{"name":"","type":"address","internalType":"address"}],"outputs":[{"name":"","type":"uint256","internalType":"uint256"}],"stateMutability":"view"},{"type":"function","name":"approve","inputs":[{"name":"guy","type":"address","internalType":"address"},{"name":"wad","type":"uint256","internalType":"uint256"}],"outputs":[{"name":"","type":"bool","internalType":"bool"}],"stateMutability":"nonpayable"},{"type":"function","name":"balanceOf","inputs":[{"name":"","type":"address","internalType":"address"}],"outputs":[{"name":"","type":"uint256","internalType":"uint256"}],"stateMutability":"view"},{"type":"function","name":"decimals","inputs":[],"outputs":[{"name":"","type":"uint8","internalType":"uint8"}],"stateMutability":"view"},{"type":"function","name":"deposit","inputs":[],"outputs":[],"stateMutability":"payable"},{"type":"function","name":"name","inputs":[],"outputs":[{"name":"","type":"string","internalType":"string"}],"stateMutability":"view"},{"type":"function","name":"symbol","inputs":[],"outputs":[{"name":"","type":"string","internalType":"string"}],"stateMutability":"view"},{"type":"function","name":"totalSupply","inputs":[],"outputs":[{"name":"","type":"uint256","internalType":"uint256"}],"stateMutability":"view"},{"type":"function","name":"transfer","inputs":[{"name":"dst","type":"address","internalType":"address"},{"name":"wad","type":"uint256","internalType":"uint256"}],"outputs":[{"name":"","type":"bool","internalType":"bool"}],"stateMutability":"nonpayable"},{"type":"function","name":"transferFrom","inputs":[{"name":"src","type":"address","internalType":"address"},{"name":"dst","type":"address","internalType":"address"},{"name":"wad","type":"uint256","internalType":"uint256"}],"outputs":[{"name":"","type":"bool","internalType":"bool"}],"stateMutability":"nonpayable"},{"type":"function","name":"withdraw","inputs":[{"name":"wad","type":"uint256","internalType":"uint256"}],"outputs":[],"stateMutability":"nonpayable"},{"type":"event","name":"Approval","inputs":[{"name":"src","type":"address","indexed":true,"internalType":"address"},{"name":"guy","type":"address","indexed":true,"internalType":"address"},{"name":"wad","type":"uint256","indexed":false,"internalType":"uint256"}],"anonymous":false},{"type":"event","name":"Deposit","inputs":[{"name":"dst","type":"address","indexed":true,"internalType":"address"},{"name":"wad","type":"uint256","indexed":false,"internalType":"uint256"}],"anonymous":false},{"type":"event","name":"Transfer","inputs":[{"name":"src","type":"address","indexed":true,"internalType":"address"},{"name":"dst","type":"address","indexed":true,"internalType":"address"},{"name":"wad","type":"uint256","indexed":false,"internalType":"uint256"}],"anonymous":false},{"type":"event","name":"Withdrawal","inputs":[{"name":"src","type":"address","indexed":true,"internalType":"address"},{"name":"wad","type":"uint256","indexed":false,"internalType":"uint256"}],"anonymous":false},{"type":"error","name":"AzeroTransferFailed","inputs":[]},{"type":"error","name":"InsufficientAllowance","inputs":[]},{"type":"error","name":"InsufficientBalance","inputs":[]}],"bytecode":{"object":"0x60c0604052600d60809081526c5772617070656420415a45524f60981b60a05260009061002c9082610118565b5060408051808201909152600681526557415a45524f60d01b60208201526001906100579082610118565b506002805460ff1916601217905534801561007157600080fd5b506101d7565b634e487b7160e01b600052604160045260246000fd5b600181811c908216806100a157607f821691505b6020821081036100c157634e487b7160e01b600052602260045260246000fd5b50919050565b601f821115610113576000816000526020600020601f850160051c810160208610156100f05750805b601f850160051c820191505b8181101561010f578281556001016100fc565b5050505b505050565b81516001600160401b0381111561013157610131610077565b6101458161013f845461008d565b846100c7565b602080601f83116001811461017a57600084156101625750858301515b600019600386901b1c1916600185901b17855561010f565b600085815260208120601f198616915b828110156101a95788860151825594840194600190910190840161018a565b50858210156101c75787850151600019600388901b60f8161c191681555b5050505050600190811b01905550565b610837806101e66000396000f3fe6080604052600436106100a05760003560e01c8063313ce56711610064578063313ce5671461016c57806370a082311461019857806395d89b41146101c5578063a9059cbb146101da578063d0e30db0146101fa578063dd62ed3e1461020257600080fd5b806306fdde03146100b4578063095ea7b3146100df57806318160ddd1461010f57806323b872dd1461012c5780632e1a7d4d1461014c57600080fd5b366100af576100ad61023a565b005b600080fd5b3480156100c057600080fd5b506100c9610295565b6040516100d69190610653565b60405180910390f35b3480156100eb57600080fd5b506100ff6100fa3660046106be565b610323565b60405190151581526020016100d6565b34801561011b57600080fd5b50475b6040519081526020016100d6565b34801561013857600080fd5b506100ff6101473660046106e8565b610390565b34801561015857600080fd5b506100ad610167366004610724565b61053c565b34801561017857600080fd5b506002546101869060ff1681565b60405160ff90911681526020016100d6565b3480156101a457600080fd5b5061011e6101b336600461073d565b60036020526000908152604090205481565b3480156101d157600080fd5b506100c9610632565b3480156101e657600080fd5b506100ff6101f53660046106be565b61063f565b6100ad61023a565b34801561020e57600080fd5b5061011e61021d366004610758565b600460209081526000928352604080842090915290825290205481565b33600090815260036020526040812080543492906102599084906107a1565b909155505060405134815233907fe1fffcc4923d04b559f4d29a8bfc6cda04eb5b0d3c460751c2402c5c5cc9109c9060200160405180910390a2565b600080546102a2906107b4565b80601f01602080910402602001604051908101604052809291908181526020018280546102ce906107b4565b801561031b5780601f106102f05761010080835404028352916020019161031b565b820191906000526020600020905b8154815290600101906020018083116102fe57829003601f168201915b505050505081565b3360008181526004602090815260408083206001600160a01b038716808552925280832085905551919290917f8c5be1e5ebec7d5bd14f71427d1e84f3dd0314c0f7b2291e5b200ac8c7c3b9259061037e9086815260200190565b60405180910390a35060015b92915050565b6001600160a01b0383166000908152600360205260408120548211156103c957604051631e9acf1760e31b815260040160405180910390fd5b6001600160a01b038416331480159061040757506001600160a01b038416600090815260046020908152604080832033845290915290205460001914155b15610489576001600160a01b0384166000908152600460209081526040808320338452909152902054821115610450576040516313be252b60e01b815260040160405180910390fd5b6001600160a01b0384166000908152600460209081526040808320338452909152812080548492906104839084906107ee565b90915550505b6001600160a01b038416600090815260036020526040812080548492906104b19084906107ee565b90915550506001600160a01b038316600090815260036020526040812080548492906104de9084906107a1565b92505081905550826001600160a01b0316846001600160a01b03167fddf252ad1be2c89b69c2b068fc378daa952ba7f163c4a11628f55a4df523b3ef8460405161052a91815260200190565b60405180910390a35060019392505050565b3360009081526003602052604090205481111561056c57604051631e9acf1760e31b815260040160405180910390fd5b336000908152600360205260408120805483929061058b9084906107ee565b9091555050604051600090339083908381818185875af1925050503d80600081146105d2576040519150601f19603f3d011682016040523d82523d6000602084013e6105d7565b606091505b50509050806105f9576040516327b7f5c560e01b815260040160405180910390fd5b60405182815233907f7fcf532c15f0a6db0bd6d0e038bea71d30d808c7d98cb3bf7268a95bf5081b659060200160405180910390a25050565b600180546102a2906107b4565b600061064c338484610390565b9392505050565b60006020808352835180602085015260005b8181101561068157858101830151858201604001528201610665565b506000604082860101526040601f19601f8301168501019250505092915050565b80356001600160a01b03811681146106b957600080fd5b919050565b600080604083850312156106d157600080fd5b6106da836106a2565b946020939093013593505050565b6000806000606084860312156106fd57600080fd5b610706846106a2565b9250610714602085016106a2565b9150604084013590509250925092565b60006020828403121561073657600080fd5b5035919050565b60006020828403121561074f57600080fd5b61064c826106a2565b6000806040838503121561076b57600080fd5b610774836106a2565b9150610782602084016106a2565b90509250929050565b634e487b7160e01b600052601160045260246000fd5b8082018082111561038a5761038a61078b565b600181811c908216806107c857607f821691505b6020821081036107e857634e487b7160e01b600052602260045260246000fd5b50919050565b8181038181111561038a5761038a61078b56fea2646970667358221220ba47a3e3ffed9dff66400151b5d2cb30e536ad4e2a0900a543feee399adca58d64736f6c63430008190033","linkReferences":{}},"methodIdentifiers":{"allowance(address,address)":"dd62ed3e","approve(address,uint256)":"095ea7b3","balanceOf(address)":"70a08231","decimals()":"313ce567","deposit()":"d0e30db0","name()":"06fdde03","symbol()":"95d89b41","totalSupply()":"18160ddd","transfer(address,uint256)":"a9059cbb","transferFrom(address,address,uint256)":"23b872dd","withdraw(uint256)":"2e1a7d4d"},"id":23}